{
  "contractName": "DigiKoin",
  "abi": [
    {
      "inputs": [],
      "stateMutability": "nonpayable",
      "type": "constructor"
    },
    {
      "inputs": [
        {
          "internalType": "address",
          "name": "spender",
          "type": "address"
        },
        {
          "internalType": "uint256",
          "name": "allowance",
          "type": "uint256"
        },
        {
          "internalType": "uint256",
          "name": "needed",
          "type": "uint256"
        }
      ],
      "name": "ERC20InsufficientAllowance",
      "type": "error"
    },
    {
      "inputs": [
        {
          "internalType": "address",
          "name": "sender",
          "type": "address"
        },
        {
          "internalType": "uint256",
          "name": "balance",
          "type": "uint256"
        },
        {
          "internalType": "uint256",
          "name": "needed",
          "type": "uint256"
        }
      ],
      "name": "ERC20InsufficientBalance",
      "type": "error"
    },
    {
      "inputs": [
        {
          "internalType": "address",
          "name": "approver",
          "type": "address"
        }
      ],
      "name": "ERC20InvalidApprover",
      "type": "error"
    },
    {
      "inputs": [
        {
          "internalType": "address",
          "name": "receiver",
          "type": "address"
        }
      ],
      "name": "ERC20InvalidReceiver",
      "type": "error"
    },
    {
      "inputs": [
        {
          "internalType": "address",
          "name": "sender",
          "type": "address"
        }
      ],
      "name": "ERC20InvalidSender",
      "type": "error"
    },
    {
      "inputs": [
        {
          "internalType": "address",
          "name": "spender",
          "type": "address"
        }
      ],
      "name": "ERC20InvalidSpender",
      "type": "error"
    },
    {
      "inputs": [
        {
          "internalType": "address",
          "name": "owner",
          "type": "address"
        }
      ],
      "name": "OwnableInvalidOwner",
      "type": "error"
    },
    {
      "inputs": [
        {
          "internalType": "address",
          "name": "account",
          "type": "address"
        }
      ],
      "name": "OwnableUnauthorizedAccount",
      "type": "error"
    },
    {
      "anonymous": false,
      "inputs": [
        {
          "indexed": true,
          "internalType": "address",
          "name": "owner",
          "type": "address"
        },
        {
          "indexed": true,
          "internalType": "address",
          "name": "spender",
          "type": "address"
        },
        {
          "indexed": false,
          "internalType": "uint256",
          "name": "value",
          "type": "uint256"
        }
      ],
      "name": "Approval",
      "type": "event"
    },
    {
      "anonymous": false,
      "inputs": [
        {
          "indexed": true,
          "internalType": "address",
          "name": "user",
          "type": "address"
        },
        {
          "indexed": false,
          "internalType": "uint256",
          "name": "amountClaimed",
          "type": "uint256"
        }
      ],
      "name": "DividendClaimed",
      "type": "event"
    },
    {
      "anonymous": false,
      "inputs": [
        {
          "indexed": false,
          "internalType": "uint256",
          "name": "totalAmountDistributed",
          "type": "uint256"
        }
      ],
      "name": "DividendsDistributed",
      "type": "event"
    },
    {
      "anonymous": false,
      "inputs": [
        {
          "indexed": true,
          "internalType": "address",
          "name": "user",
          "type": "address"
        },
        {
          "indexed": false,
          "internalType": "uint256",
          "name": "amount",
          "type": "uint256"
        }
      ],
      "name": "EquityPurchased",
      "type": "event"
    },
    {
      "anonymous": false,
      "inputs": [
        {
          "indexed": true,
          "internalType": "address",
          "name": "sender",
          "type": "address"
        },
        {
          "indexed": false,
          "internalType": "uint256",
          "name": "amount",
          "type": "uint256"
        }
      ],
      "name": "EtherReceived",
      "type": "event"
    },
    {
      "anonymous": false,
      "inputs": [
        {
          "indexed": true,
          "internalType": "address",
          "name": "recipient",
          "type": "address"
        },
        {
          "indexed": false,
          "internalType": "uint256",
          "name": "amountMinted",
          "type": "uint256"
        }
      ],
      "name": "GoldMinted",
      "type": "event"
    },
    {
      "anonymous": false,
      "inputs": [
        {
          "indexed": true,
          "internalType": "address",
          "name": "previousOwner",
          "type": "address"
        },
        {
          "indexed": true,
          "internalType": "address",
          "name": "newOwner",
          "type": "address"
        }
      ],
      "name": "OwnershipTransferred",
      "type": "event"
    },
    {
      "anonymous": false,
      "inputs": [
        {
          "indexed": false,
          "internalType": "uint256",
          "name": "amount",
          "type": "uint256"
        }
      ],
      "name": "ProfitsDistributed",
      "type": "event"
    },
    {
      "anonymous": false,
      "inputs": [
        {
          "indexed": true,
          "internalType": "address",
          "name": "user",
          "type": "address"
        },
        {
          "indexed": false,
          "internalType": "uint256",
          "name": "amountRequested",
          "type": "uint256"
        }
      ],
      "name": "RedemptionRequested",
      "type": "event"
    },
    {
      "anonymous": false,
      "inputs": [
        {
          "indexed": true,
          "internalType": "address",
          "name": "from",
          "type": "address"
        },
        {
          "indexed": true,
          "internalType": "address",
          "name": "to",
          "type": "address"
        },
        {
          "indexed": false,
          "internalType": "uint256",
          "name": "amountTransferred",
          "type": "uint256"
        }
      ],
      "name": "TokenTransferred",
      "type": "event"
    },
    {
      "anonymous": false,
      "inputs": [
        {
          "indexed": true,
          "internalType": "address",
          "name": "from",
          "type": "address"
        },
        {
          "indexed": true,
          "internalType": "address",
          "name": "to",
          "type": "address"
        },
        {
          "indexed": false,
          "internalType": "uint256",
          "name": "value",
          "type": "uint256"
        }
      ],
      "name": "Transfer",
      "type": "event"
    },
    {
      "stateMutability": "payable",
      "type": "fallback",
      "payable": true
    },
    {
      "inputs": [
        {
          "internalType": "address",
          "name": "owner",
          "type": "address"
        },
        {
          "internalType": "address",
          "name": "spender",
          "type": "address"
        }
      ],
      "name": "allowance",
      "outputs": [
        {
          "internalType": "uint256",
          "name": "",
          "type": "uint256"
        }
      ],
      "stateMutability": "view",
      "type": "function",
      "constant": true
    },
    {
      "inputs": [
        {
          "internalType": "address",
          "name": "spender",
          "type": "address"
        },
        {
          "internalType": "uint256",
          "name": "value",
          "type": "uint256"
        }
      ],
      "name": "approve",
      "outputs": [
        {
          "internalType": "bool",
          "name": "",
          "type": "bool"
        }
      ],
      "stateMutability": "nonpayable",
      "type": "function"
    },
    {
      "inputs": [
        {
          "internalType": "address",
          "name": "account",
          "type": "address"
        }
      ],
      "name": "balanceOf",
      "outputs": [
        {
          "internalType": "uint256",
          "name": "",
          "type": "uint256"
        }
      ],
      "stateMutability": "view",
      "type": "function",
      "constant": true
    },
    {
      "inputs": [],
      "name": "decimals",
      "outputs": [
        {
          "internalType": "uint8",
          "name": "",
          "type": "uint8"
        }
      ],
      "stateMutability": "view",
      "type": "function",
      "constant": true
    },
    {
      "inputs": [
        {
          "internalType": "address",
          "name": "",
          "type": "address"
        }
      ],
      "name": "equityStake",
      "outputs": [
        {
          "internalType": "uint256",
          "name": "",
          "type": "uint256"
        }
      ],
      "stateMutability": "view",
      "type": "function",
      "constant": true
    },
    {
      "inputs": [],
      "name": "goldReserves",
      "outputs": [
        {
          "internalType": "uint256",
          "name": "",
          "type": "uint256"
        }
      ],
      "stateMutability": "view",
      "type": "function",
      "constant": true
    },
    {
      "inputs": [],
      "name": "name",
      "outputs": [
        {
          "internalType": "string",
          "name": "",
          "type": "string"
        }
      ],
      "stateMutability": "view",
      "type": "function",
      "constant": true
    },
    {
      "inputs": [],
      "name": "owner",
      "outputs": [
        {
          "internalType": "address",
          "name": "",
          "type": "address"
        }
      ],
      "stateMutability": "view",
      "type": "function",
      "constant": true
    },
    {
      "inputs": [],
      "name": "renounceOwnership",
      "outputs": [],
      "stateMutability": "nonpayable",
      "type": "function"
    },
    {
      "inputs": [],
      "name": "symbol",
      "outputs": [
        {
          "internalType": "string",
          "name": "",
          "type": "string"
        }
      ],
      "stateMutability": "view",
      "type": "function",
      "constant": true
    },
    {
      "inputs": [],
      "name": "totalDividends",
      "outputs": [
        {
          "internalType": "uint256",
          "name": "",
          "type": "uint256"
        }
      ],
      "stateMutability": "view",
      "type": "function",
      "constant": true
    },
    {
      "inputs": [],
      "name": "totalEquity",
      "outputs": [
        {
          "internalType": "uint256",
          "name": "",
          "type": "uint256"
        }
      ],
      "stateMutability": "view",
      "type": "function",
      "constant": true
    },
    {
      "inputs": [],
      "name": "totalProfitsDistributed",
      "outputs": [
        {
          "internalType": "uint256",
          "name": "",
          "type": "uint256"
        }
      ],
      "stateMutability": "view",
      "type": "function",
      "constant": true
    },
    {
      "inputs": [],
      "name": "totalSupply",
      "outputs": [
        {
          "internalType": "uint256",
          "name": "",
          "type": "uint256"
        }
      ],
      "stateMutability": "view",
      "type": "function",
      "constant": true
    },
    {
      "inputs": [
        {
          "internalType": "address",
          "name": "from",
          "type": "address"
        },
        {
          "internalType": "address",
          "name": "to",
          "type": "address"
        },
        {
          "internalType": "uint256",
          "name": "value",
          "type": "uint256"
        }
      ],
      "name": "transferFrom",
      "outputs": [
        {
          "internalType": "bool",
          "name": "",
          "type": "bool"
        }
      ],
      "stateMutability": "nonpayable",
      "type": "function"
    },
    {
      "inputs": [
        {
          "internalType": "address",
          "name": "newOwner",
          "type": "address"
        }
      ],
      "name": "transferOwnership",
      "outputs": [],
      "stateMutability": "nonpayable",
      "type": "function"
    },
    {
      "stateMutability": "payable",
      "type": "receive",
      "payable": true
    },
    {
      "inputs": [
        {
          "internalType": "address",
          "name": "recipient",
          "type": "address"
        },
        {
          "internalType": "uint256",
          "name": "amount",
          "type": "uint256"
        }
      ],
      "name": "mintGold",
      "outputs": [],
      "stateMutability": "nonpayable",
      "type": "function"
    },
    {
      "inputs": [
        {
          "internalType": "uint256",
          "name": "amount",
          "type": "uint256"
        }
      ],
      "name": "redeemGold",
      "outputs": [],
      "stateMutability": "nonpayable",
      "type": "function"
    },
    {
      "inputs": [
        {
          "internalType": "uint256",
          "name": "totalAmount",
          "type": "uint256"
        }
      ],
      "name": "distributeDividends",
      "outputs": [],
      "stateMutability": "nonpayable",
      "type": "function"
    },
    {
      "inputs": [],
      "name": "claimDividend",
      "outputs": [],
      "stateMutability": "nonpayable",
      "type": "function"
    },
    {
      "inputs": [],
      "name": "withdrawEther",
      "outputs": [],
      "stateMutability": "nonpayable",
      "type": "function"
    },
    {
      "inputs": [],
      "name": "buyTokens",
      "outputs": [],
      "stateMutability": "payable",
      "type": "function",
      "payable": true
    },
    {
      "inputs": [
        {
          "internalType": "address",
          "name": "recipient",
          "type": "address"
        },
        {
          "internalType": "uint256",
          "name": "amount",
          "type": "uint256"
        }
      ],
      "name": "transfer",
      "outputs": [
        {
          "internalType": "bool",
          "name": "",
          "type": "bool"
        }
      ],
      "stateMutability": "nonpayable",
      "type": "function"
    },
    {
      "inputs": [],
      "name": "buyEquity",
      "outputs": [],
      "stateMutability": "payable",
      "type": "function",
      "payable": true
    },
    {
      "inputs": [],
      "name": "distributeProfits",
      "outputs": [],
      "stateMutability": "nonpayable",
      "type": "function"
    },
    {
      "inputs": [],
      "name": "getTotalEquity",
      "outputs": [
        {
          "internalType": "uint256",
          "name": "",
          "type": "uint256"
        }
      ],
      "stateMutability": "view",
      "type": "function",
      "constant": true
    }
  ],
  "bytecode": "0x60806040523480156200001157600080fd5b5033604051806040016040528060088152602001672234b3b4a5b7b4b760c11b8152506040518060400160405280600381526020016244474b60e81b815250816003908162000061919062000344565b50600462000070828262000344565b5050506001600160a01b038116620000a357604051631e4fbdf760e01b8152600060048201526024015b60405180910390fd5b620000ae81620000dc565b50620000d633620000c26012600a62000525565b620000d0906127106200053d565b6200012e565b6200056d565b600580546001600160a01b038381166001600160a01b0319831681179093556040519116919082907f8be0079c531659141344cd1fd0a4f28419497f9722a3daafe3b4186f6b6457e090600090a35050565b6001600160a01b0382166200015a5760405163ec442f0560e01b8152600060048201526024016200009a565b62000168600083836200016c565b5050565b6001600160a01b0383166200019b5780600260008282546200018f919062000557565b909155506200020f9050565b6001600160a01b03831660009081526020819052604090205481811015620001f05760405163391434e360e21b81526001600160a01b038516600482015260248101829052604481018390526064016200009a565b6001600160a01b03841660009081526020819052604090209082900390555b6001600160a01b0382166200022d576002805482900390556200024c565b6001600160a01b03821660009081526020819052604090208054820190555b816001600160a01b0316836001600160a01b03167fddf252ad1be2c89b69c2b068fc378daa952ba7f163c4a11628f55a4df523b3ef836040516200029291815260200190565b60405180910390a3505050565b634e487b7160e01b600052604160045260246000fd5b600181811c90821680620002ca57607f821691505b602082108103620002eb57634e487b7160e01b600052602260045260246000fd5b50919050565b601f8211156200033f57600081815260208120601f850160051c810160208610156200031a5750805b601f850160051c820191505b818110156200033b5782815560010162000326565b5050505b505050565b81516001600160401b038111156200036057620003606200029f565b6200037881620003718454620002b5565b84620002f1565b602080601f831160018114620003b05760008415620003975750858301515b600019600386901b1c1916600185901b1785556200033b565b600085815260208120601f198616915b82811015620003e157888601518255948401946001909101908401620003c0565b5085821015620004005787850151600019600388901b60f8161c191681555b5050505050600190811b01905550565b634e487b7160e01b600052601160045260246000fd5b600181815b80851115620004675781600019048211156200044b576200044b62000410565b808516156200045957918102915b93841c93908002906200042b565b509250929050565b60008262000480575060016200051f565b816200048f575060006200051f565b8160018114620004a85760028114620004b357620004d3565b60019150506200051f565b60ff841115620004c757620004c762000410565b50506001821b6200051f565b5060208310610133831016604e8410600b8410161715620004f8575081810a6200051f565b62000504838362000426565b80600019048211156200051b576200051b62000410565b0290505b92915050565b60006200053660ff8416836200046f565b9392505050565b80820281158282048414176200051f576200051f62000410565b808201808211156200051f576200051f62000410565b61130c806200057d6000396000f3fe6080604052600436106101855760003560e01c80637362377b116100d1578063c1f88f231161008a578063edf52d1311610064578063edf52d13146104bd578063f0fc6bca146104dd578063f2fde38b146104f2578063ff6822e414610512576101d9565b8063c1f88f2314610459578063d0febe4c1461046f578063dd62ed3e14610477576101d9565b80637362377b146103bb5780638da5cb5b146103d057806395d89b41146103f8578063997664d71461040d578063a570a9c514610423578063a9059cbb14610439576101d9565b8063313ce5671161013e57806356aef98c1161011857806356aef98c1461033b57806370a0823114610350578063715018a614610386578063715293801461039b576101d9565b8063313ce567146102e95780633243c791146103055780634e151e1414610325576101d9565b806306fdde031461020b578063095ea7b31461023657806318160ddd146102665780631bf88799146102855780631fee5ccd146102b257806323b872dd146102c9576101d9565b366101d957346007600082825461019c9190611106565b909155505060405134815233907f1e57e3bb474320be3d2c77138f75b7c3941292d647f5f9634e33a8e94e0e069b906020015b60405180910390a2005b60405134815233907f1e57e3bb474320be3d2c77138f75b7c3941292d647f5f9634e33a8e94e0e069b906020016101cf565b34801561021757600080fd5b5061022061051a565b60405161022d9190611119565b60405180910390f35b34801561024257600080fd5b50610256610251366004611183565b6105ac565b604051901515815260200161022d565b34801561027257600080fd5b506002545b60405190815260200161022d565b34801561029157600080fd5b506102776102a03660046111ad565b600a6020526000908152604090205481565b3480156102be57600080fd5b506102c76105c6565b005b3480156102d557600080fd5b506102566102e43660046111c8565b610670565b3480156102f557600080fd5b506040516012815260200161022d565b34801561031157600080fd5b506102c7610320366004611204565b610694565b34801561033157600080fd5b5061027760065481565b34801561034757600080fd5b50600854610277565b34801561035c57600080fd5b5061027761036b3660046111ad565b6001600160a01b031660009081526020819052604090205490565b34801561039257600080fd5b506102c7610783565b3480156103a757600080fd5b506102c76103b6366004611204565b610797565b3480156103c757600080fd5b506102c7610899565b3480156103dc57600080fd5b506005546040516001600160a01b03909116815260200161022d565b34801561040457600080fd5b5061022061098e565b34801561041957600080fd5b5061027760075481565b34801561042f57600080fd5b5061027760085481565b34801561044557600080fd5b50610256610454366004611183565b61099d565b34801561046557600080fd5b5061027760095481565b6102c76109fa565b34801561048357600080fd5b5061027761049236600461121d565b6001600160a01b03918216600090815260016020908152604080832093909416825291909152205490565b3480156104c957600080fd5b506102c76104d8366004611183565b610aa2565b3480156104e957600080fd5b506102c7610b0d565b3480156104fe57600080fd5b506102c761050d3660046111ad565b610bfc565b6102c7610c3a565b60606003805461052990611250565b80601f016020809104026020016040519081016040528092919081815260200182805461055590611250565b80156105a25780601f10610577576101008083540402835291602001916105a2565b820191906000526020600020905b81548152906001019060200180831161058557829003601f168201915b5050505050905090565b6000336105ba818585610d08565b60019150505b92915050565b6105ce610d1a565b47806106185760405162461bcd60e51b81526020600482015260146024820152734e6f2070726f6669747320617661696c61626c6560601b60448201526064015b60405180910390fd5b806009600082825461062a9190611106565b90915550610639905081610694565b6040518181527f4d074af92473714a50d24a44926bf6ce3944f7774167533a0bc560c1c2e51909906020015b60405180910390a150565b60003361067e858285610d47565b610689858585610dc6565b506001949350505050565b600081116106e45760405162461bcd60e51b815260206004820152601f60248201527f4469766964656e64206d7573742062652067726561746572207468616e203000604482015260640161060f565b60006106ef60025490565b1161073c5760405162461bcd60e51b815260206004820152601860248201527f4e6f20746f6b656e7320696e2063697263756c6174696f6e0000000000000000604482015260640161060f565b806007600082825461074e9190611106565b90915550506040518181527f051019b59d3b24249903e46fd05b6def7f293fc3de54eca64b3d32743f27fc8e90602001610665565b61078b610d1a565b6107956000610e25565b565b336000908152602081905260409020548111156107ed5760405162461bcd60e51b8152602060048201526014602482015273496e73756666696369656e742062616c616e636560601b604482015260640161060f565b80600654101561083f5760405162461bcd60e51b815260206004820152601b60248201527f4e6f7420656e6f75676820676f6c6420696e2072657365727665730000000000604482015260640161060f565b6108493382610e77565b806006600082825461085b919061128a565b909155505060405181815233907f3779310b71beb93dce3cb4f282d1ee00e2a6c89891587b17c1842ba12f7d52a4906020015b60405180910390a250565b6108a1610d1a565b47806108e45760405162461bcd60e51b81526020600482015260126024820152714e6f2045544820746f20776974686472617760701b604482015260640161060f565b60006108f86005546001600160a01b031690565b6001600160a01b03168260405160006040518083038185875af1925050503d8060008114610942576040519150601f19603f3d011682016040523d82523d6000602084013e610947565b606091505b505090508061098a5760405162461bcd60e51b815260206004820152600f60248201526e15da5d1a191c985dc819985a5b1959608a1b604482015260640161060f565b5050565b60606004805461052990611250565b6000806109aa8484610ead565b905080156109f3576040518381526001600160a01b0385169033907f9c8515990fd8c61431c4ac8db9b81475f90c292a1dda77731e56c22e64fc76439060200160405180910390a35b9392505050565b60003411610a3a5760405162461bcd60e51b815260206004820152600d60248201526c09aeae6e840e6cadcc8408aa89609b1b604482015260640161060f565b6000610a4d662386f26fc100003461129d565b9050610a593382610ebb565b8060066000828254610a6b9190611106565b909155505060405181815233907f5aa584986da4ad807b9647f1ac441251fb6453c88ebb4fdb727069cf49b7292e9060200161088e565b610aaa610d1a565b610ab48282610ebb565b8060066000828254610ac69190611106565b90915550506040518181526001600160a01b038316907f5aa584986da4ad807b9647f1ac441251fb6453c88ebb4fdb727069cf49b7292e9060200160405180910390a25050565b6000610b1860025490565b60075433600090815260208190526040902054610b3591906112bf565b610b3f919061129d565b905060008111610b855760405162461bcd60e51b8152602060048201526011602482015270139bc8191a5d9a59195b991cc81bddd959607a1b604482015260640161060f565b8060076000828254610b97919061128a565b9091555050604051339082156108fc029083906000818181858888f19350505050158015610bc9573d6000803e3d6000fd5b5060405181815233907f5efa67896a23b651b741b525caacba039c00ca7853be3de8eb1f4269e8669c569060200161088e565b610c04610d1a565b6001600160a01b038116610c2e57604051631e4fbdf760e01b81526000600482015260240161060f565b610c3781610e25565b50565b60003411610c945760405162461bcd60e51b815260206004820152602160248201527f496e766573746d656e74206d7573742062652067726561746572207468616e206044820152600360fc1b606482015260840161060f565b336000908152600a602052604081208054349290610cb3908490611106565b925050819055503460086000828254610ccc9190611106565b909155505060405134815233907ff6f789e22d2fd81565e9a5f1f694c6832eb01e2931e1617fa3ca2501a4bc7ac59060200160405180910390a2565b610d158383836001610ef1565b505050565b6005546001600160a01b031633146107955760405163118cdaa760e01b815233600482015260240161060f565b6001600160a01b03838116600090815260016020908152604080832093861683529290522054600019811015610dc05781811015610db157604051637dc7a0d960e11b81526001600160a01b0384166004820152602481018290526044810183905260640161060f565b610dc084848484036000610ef1565b50505050565b6001600160a01b038316610df057604051634b637e8f60e11b81526000600482015260240161060f565b6001600160a01b038216610e1a5760405163ec442f0560e01b81526000600482015260240161060f565b610d15838383610fc6565b600580546001600160a01b038381166001600160a01b0319831681179093556040519116919082907f8be0079c531659141344cd1fd0a4f28419497f9722a3daafe3b4186f6b6457e090600090a35050565b6001600160a01b038216610ea157604051634b637e8f60e11b81526000600482015260240161060f565b61098a82600083610fc6565b6000336105ba818585610dc6565b6001600160a01b038216610ee55760405163ec442f0560e01b81526000600482015260240161060f565b61098a60008383610fc6565b6001600160a01b038416610f1b5760405163e602df0560e01b81526000600482015260240161060f565b6001600160a01b038316610f4557604051634a1406b160e11b81526000600482015260240161060f565b6001600160a01b0380851660009081526001602090815260408083209387168352929052208290558015610dc057826001600160a01b0316846001600160a01b03167f8c5be1e5ebec7d5bd14f71427d1e84f3dd0314c0f7b2291e5b200ac8c7c3b92584604051610fb891815260200190565b60405180910390a350505050565b6001600160a01b038316610ff1578060026000828254610fe69190611106565b909155506110639050565b6001600160a01b038316600090815260208190526040902054818110156110445760405163391434e360e21b81526001600160a01b0385166004820152602481018290526044810183905260640161060f565b6001600160a01b03841660009081526020819052604090209082900390555b6001600160a01b03821661107f5760028054829003905561109e565b6001600160a01b03821660009081526020819052604090208054820190555b816001600160a01b0316836001600160a01b03167fddf252ad1be2c89b69c2b068fc378daa952ba7f163c4a11628f55a4df523b3ef836040516110e391815260200190565b60405180910390a3505050565b634e487b7160e01b600052601160045260246000fd5b808201808211156105c0576105c06110f0565b600060208083528351808285015260005b818110156111465785810183015185820160400152820161112a565b506000604082860101526040601f19601f8301168501019250505092915050565b80356001600160a01b038116811461117e57600080fd5b919050565b6000806040838503121561119657600080fd5b61119f83611167565b946020939093013593505050565b6000602082840312156111bf57600080fd5b6109f382611167565b6000806000606084860312156111dd57600080fd5b6111e684611167565b92506111f460208501611167565b9150604084013590509250925092565b60006020828403121561121657600080fd5b5035919050565b6000806040838503121561123057600080fd5b61123983611167565b915061124760208401611167565b90509250929050565b600181811c9082168061126457607f821691505b60208210810361128457634e487b7160e01b600052602260045260246000fd5b50919050565b818103818111156105c0576105c06110f0565b6000826112ba57634e487b7160e01b600052601260045260246000fd5b500490565b80820281158282048414176105c0576105c06110f056fea26469706673582212206c74a4d78f7bacc2eee0d165dec1c9566b32502a0a3ef101bb7f4f92ca58b4d364736f6c63430008140033",
  "immutableReferences": {},
  "source": "// SPDX-License-Identifier: MIT\r\npragma solidity ^0.8.20;\r\n\r\nimport \"@openzeppelin/contracts/token/ERC20/ERC20.sol\";\r\nimport \"@openzeppelin/contracts/access/Ownable.sol\";\r\n\r\ncontract DigiKoin is ERC20, Ownable {\r\n    uint256 public goldReserves;\r\n    uint256 public totalDividends;\r\n    uint256 public totalEquity;\r\n    uint256 public totalProfitsDistributed;\r\n    mapping(address => uint256) public equityStake;\r\n\r\n    event GoldMinted(address indexed recipient, uint256 amountMinted);\r\n    event RedemptionRequested(address indexed user, uint256 amountRequested);\r\n    event DividendsDistributed(uint256 totalAmountDistributed);\r\n    event DividendClaimed(address indexed user, uint256 amountClaimed);\r\n    event TokenTransferred(address indexed from, address indexed to, uint256 amountTransferred);\r\n    event EquityPurchased(address indexed user, uint256 amount);\r\n    event ProfitsDistributed(uint256 amount);\r\n    event EtherReceived(address indexed sender, uint256 amount);\r\n\r\n    constructor() ERC20(\"DigiKoin\", \"DGK\") Ownable(msg.sender) {\r\n        _mint(msg.sender, 10000 * 10 ** decimals()); // Initial supply\r\n    }\r\n\r\n    function mintGold(address recipient, uint256 amount) external onlyOwner {\r\n        _mint(recipient, amount);\r\n        goldReserves += amount;\r\n        emit GoldMinted(recipient, amount);\r\n    }\r\n\r\n    function redeemGold(uint256 amount) external {\r\n        require(balanceOf(msg.sender) >= amount, \"Insufficient balance\");\r\n        require(goldReserves >= amount, \"Not enough gold in reserves\");\r\n        _burn(msg.sender, amount);\r\n        goldReserves -= amount;\r\n        emit RedemptionRequested(msg.sender, amount);\r\n    }\r\n\r\n    function distributeDividends(uint256 totalAmount) public  {\r\n        require(totalAmount > 0, \"Dividend must be greater than 0\");\r\n        require(totalSupply() > 0, \"No tokens in circulation\");\r\n        totalDividends += totalAmount;\r\n        emit DividendsDistributed(totalAmount);\r\n    }\r\n\r\n    function claimDividend() external {\r\n        uint256 owed = (balanceOf(msg.sender) * totalDividends) / totalSupply();\r\n        require(owed > 0, \"No dividends owed\");\r\n        totalDividends -= owed;\r\n        payable(msg.sender).transfer(owed);\r\n        emit DividendClaimed(msg.sender, owed);\r\n    }\r\n\r\n    function withdrawEther() external onlyOwner {\r\n        uint256 balance = address(this).balance;\r\n        require(balance > 0, \"No ETH to withdraw\");\r\n        (bool success, ) = owner().call{value: balance}(\"\");\r\n        require(success, \"Withdraw failed\");\r\n    }\r\n\r\n    function buyTokens() external payable {\r\n        require(msg.value > 0, \"Must send ETH\");\r\n        uint256 amount = msg.value / 0.01 ether;\r\n        _mint(msg.sender, amount);\r\n        goldReserves += amount;\r\n        emit GoldMinted(msg.sender, amount);\r\n    }\r\n\r\n    function transfer(address recipient, uint256 amount) public override returns (bool) {\r\n        bool success = super.transfer(recipient, amount);\r\n        if (success) {\r\n            emit TokenTransferred(msg.sender, recipient, amount);\r\n        }\r\n        return success;\r\n    }\r\n\r\n    function buyEquity() external payable {\r\n        require(msg.value > 0, \"Investment must be greater than 0\");\r\n        equityStake[msg.sender] += msg.value;\r\n        totalEquity += msg.value;\r\n        emit EquityPurchased(msg.sender, msg.value);\r\n    }\r\n\r\n    function distributeProfits() external onlyOwner {\r\n        uint256 profitAmount = address(this).balance;\r\n        require(profitAmount > 0, \"No profits available\");\r\n\r\n        totalProfitsDistributed += profitAmount;\r\n        distributeDividends(profitAmount);  // Now it will be visible\r\n        emit ProfitsDistributed(profitAmount);\r\n    }\r\n\r\n    function getTotalEquity() external view returns (uint256) {\r\n        return totalEquity;\r\n    }\r\n\r\n    receive() external payable {\r\n        totalDividends += msg.value;\r\n        emit EtherReceived(msg.sender, msg.value);\r\n    }\r\n    \r\n    fallback() external payable { \r\n    emit EtherReceived(msg.sender, msg.value); // Log unexpected ETH transfers\r\n}\r\n\r\n}\r\n",
  "sourcePath": "C:\\Users\\USER\\Desktop\\PROJO\\VoltedgeServer\\contracts\\DigiKoin.sol",
  "compiler": {
    "name": "solc",
    "version": "0.8.20+commit.a1b79de6.Emscripten.clang"
  },
  "schemaVersion": "3.4.15",
  "updatedAt": "2025-03-04T11:39:18.363Z",
  "networkType": "ethereum",
  "devdoc": {
    "errors": {
      "ERC20InsufficientAllowance(address,uint256,uint256)": [
        {
          "details": "Indicates a failure with the `spender`s `allowance`. Used in transfers.",
          "params": {
            "allowance": "Amount of tokens a `spender` is allowed to operate with.",
            "needed": "Minimum amount required to perform a transfer.",
            "spender": "Address that may be allowed to operate on tokens without being their owner."
          }
        }
      ],
      "ERC20InsufficientBalance(address,uint256,uint256)": [
        {
          "details": "Indicates an error related to the current `balance` of a `sender`. Used in transfers.",
          "params": {
            "balance": "Current balance for the interacting account.",
            "needed": "Minimum amount required to perform a transfer.",
            "sender": "Address whose tokens are being transferred."
          }
        }
      ],
      "ERC20InvalidApprover(address)": [
        {
          "details": "Indicates a failure with the `approver` of a token to be approved. Used in approvals.",
          "params": {
            "approver": "Address initiating an approval operation."
          }
        }
      ],
      "ERC20InvalidReceiver(address)": [
        {
          "details": "Indicates a failure with the token `receiver`. Used in transfers.",
          "params": {
            "receiver": "Address to which tokens are being transferred."
          }
        }
      ],
      "ERC20InvalidSender(address)": [
        {
          "details": "Indicates a failure with the token `sender`. Used in transfers.",
          "params": {
            "sender": "Address whose tokens are being transferred."
          }
        }
      ],
      "ERC20InvalidSpender(address)": [
        {
          "details": "Indicates a failure with the `spender` to be approved. Used in approvals.",
          "params": {
            "spender": "Address that may be allowed to operate on tokens without being their owner."
          }
        }
      ],
      "OwnableInvalidOwner(address)": [
        {
          "details": "The owner is not a valid owner account. (eg. `address(0)`)"
        }
      ],
      "OwnableUnauthorizedAccount(address)": [
        {
          "details": "The caller account is not authorized to perform an operation."
        }
      ]
    },
    "events": {
      "Approval(address,address,uint256)": {
        "details": "Emitted when the allowance of a `spender` for an `owner` is set by a call to {approve}. `value` is the new allowance."
      },
      "Transfer(address,address,uint256)": {
        "details": "Emitted when `value` tokens are moved from one account (`from`) to another (`to`). Note that `value` may be zero."
      }
    },
    "kind": "dev",
    "methods": {
      "allowance(address,address)": {
        "details": "See {IERC20-allowance}."
      },
      "approve(address,uint256)": {
        "details": "See {IERC20-approve}. NOTE: If `value` is the maximum `uint256`, the allowance is not updated on `transferFrom`. This is semantically equivalent to an infinite approval. Requirements: - `spender` cannot be the zero address."
      },
      "balanceOf(address)": {
        "details": "See {IERC20-balanceOf}."
      },
      "decimals()": {
        "details": "Returns the number of decimals used to get its user representation. For example, if `decimals` equals `2`, a balance of `505` tokens should be displayed to a user as `5.05` (`505 / 10 ** 2`). Tokens usually opt for a value of 18, imitating the relationship between Ether and Wei. This is the default value returned by this function, unless it's overridden. NOTE: This information is only used for _display_ purposes: it in no way affects any of the arithmetic of the contract, including {IERC20-balanceOf} and {IERC20-transfer}."
      },
      "name()": {
        "details": "Returns the name of the token."
      },
      "owner()": {
        "details": "Returns the address of the current owner."
      },
      "renounceOwnership()": {
        "details": "Leaves the contract without owner. It will not be possible to call `onlyOwner` functions. Can only be called by the current owner. NOTE: Renouncing ownership will leave the contract without an owner, thereby disabling any functionality that is only available to the owner."
      },
      "symbol()": {
        "details": "Returns the symbol of the token, usually a shorter version of the name."
      },
      "totalSupply()": {
        "details": "See {IERC20-totalSupply}."
      },
      "transferFrom(address,address,uint256)": {
        "details": "See {IERC20-transferFrom}. Skips emitting an {Approval} event indicating an allowance update. This is not required by the ERC. See {xref-ERC20-_approve-address-address-uint256-bool-}[_approve]. NOTE: Does not update the allowance if the current allowance is the maximum `uint256`. Requirements: - `from` and `to` cannot be the zero address. - `from` must have a balance of at least `value`. - the caller must have allowance for ``from``'s tokens of at least `value`."
      },
      "transferOwnership(address)": {
        "details": "Transfers ownership of the contract to a new account (`newOwner`). Can only be called by the current owner."
      }
    },
    "version": 1
  },
  "userdoc": {
    "kind": "user",
    "methods": {},
    "version": 1
  }
}